{
  "_format": "hh-sol-artifact-1",
  "contractName": "UniBoost",
  "sourceName": "contracts/UniBoost.sol",
  "abi": [
    {
      "inputs": [
        {
          "internalType": "address",
          "name": "_factory",
          "type": "address"
        },
        {
          "internalType": "address",
          "name": "_nonfungiblePositionManager",
          "type": "address"
        },
        {
          "internalType": "address",
          "name": "_protocolVault",
          "type": "address"
        },
        {
          "internalType": "uint24",
          "name": "_protocolFee",
          "type": "uint24"
        },
        {
          "internalType": "uint256",
          "name": "_minBoostPeriod",
          "type": "uint256"
        },
        {
          "internalType": "uint256",
          "name": "_minStakedTimeForClaimingReward",
          "type": "uint256"
        },
        {
          "internalType": "uint32",
          "name": "_twapInterval",
          "type": "uint32"
        }
      ],
      "stateMutability": "nonpayable",
      "type": "constructor"
    },
    {
      "inputs": [],
      "name": "BoostRoundNotEnd",
      "type": "error"
    },
    {
      "inputs": [],
      "name": "BoostTimeTooShort",
      "type": "error"
    },
    {
      "inputs": [],
      "name": "InsuranceTriggered",
      "type": "error"
    },
    {
      "inputs": [],
      "name": "InvalidBoostAmountOrRate",
      "type": "error"
    },
    {
      "inputs": [],
      "name": "InvalidFeeConfig",
      "type": "error"
    },
    {
      "inputs": [],
      "name": "InvalidTime",
      "type": "error"
    },
    {
      "inputs": [],
      "name": "InvalidTriggerCondition",
      "type": "error"
    },
    {
      "inputs": [],
      "name": "NotAValidPool",
      "type": "error"
    },
    {
      "inputs": [],
      "name": "NotIncentivizer",
      "type": "error"
    },
    {
      "inputs": [],
      "name": "NotTokenOwner",
      "type": "error"
    },
    {
      "inputs": [],
      "name": "PoolBoostNotActive",
      "type": "error"
    },
    {
      "inputs": [],
      "name": "liquidateConditionMet",
      "type": "error"
    },
    {
      "inputs": [],
      "name": "liquidateConditionNotMet",
      "type": "error"
    },
    {
      "anonymous": false,
      "inputs": [
        {
          "indexed": true,
          "internalType": "address",
          "name": "previousOwner",
          "type": "address"
        },
        {
          "indexed": true,
          "internalType": "address",
          "name": "newOwner",
          "type": "address"
        }
      ],
      "name": "OwnershipTransferred",
      "type": "event"
    },
    {
      "inputs": [
        {
          "internalType": "address",
          "name": "_pool",
          "type": "address"
        },
        {
          "internalType": "uint256",
          "name": "_amount",
          "type": "uint256"
        },
        {
          "internalType": "uint256",
          "name": "_insuranceAmount",
          "type": "uint256"
        }
      ],
      "name": "addFund",
      "outputs": [],
      "stateMutability": "nonpayable",
      "type": "function"
    },
    {
      "inputs": [
        {
          "internalType": "address[]",
          "name": "assets",
          "type": "address[]"
        }
      ],
      "name": "addHealthAssets",
      "outputs": [],
      "stateMutability": "nonpayable",
      "type": "function"
    },
    {
      "inputs": [
        {
          "internalType": "uint256",
          "name": "_tokenId",
          "type": "uint256"
        }
      ],
      "name": "claimOwedInsurance",
      "outputs": [],
      "stateMutability": "nonpayable",
      "type": "function"
    },
    {
      "inputs": [
        {
          "internalType": "uint256",
          "name": "_tokenId",
          "type": "uint256"
        }
      ],
      "name": "claimReward",
      "outputs": [],
      "stateMutability": "nonpayable",
      "type": "function"
    },
    {
      "inputs": [
        {
          "internalType": "address",
          "name": "_pool",
          "type": "address"
        }
      ],
      "name": "closeCurrentBoostRound",
      "outputs": [],
      "stateMutability": "nonpayable",
      "type": "function"
    },
    {
      "inputs": [
        {
          "internalType": "address",
          "name": "_pool",
          "type": "address"
        },
        {
          "internalType": "uint256",
          "name": "_boostAmount",
          "type": "uint256"
        },
        {
          "internalType": "uint256",
          "name": "_insuranceAmount",
          "type": "uint256"
        },
        {
          "internalType": "int24",
          "name": "_insuranceTriggerPriceInTick",
          "type": "int24"
        },
        {
          "internalType": "uint32",
          "name": "_boostRate",
          "type": "uint32"
        },
        {
          "internalType": "uint64",
          "name": "_boostEndTime",
          "type": "uint64"
        }
      ],
      "name": "enableBoost",
      "outputs": [],
      "stateMutability": "nonpayable",
      "type": "function"
    },
    {
      "inputs": [],
      "name": "factory",
      "outputs": [
        {
          "internalType": "contract IUniswapV3Factory",
          "name": "",
          "type": "address"
        }
      ],
      "stateMutability": "view",
      "type": "function"
    },
    {
      "inputs": [],
      "name": "feeConfig",
      "outputs": [
        {
          "internalType": "address",
          "name": "protocolVault",
          "type": "address"
        },
        {
          "internalType": "uint24",
          "name": "protocolFee",
          "type": "uint24"
        }
      ],
      "stateMutability": "view",
      "type": "function"
    },
    {
      "inputs": [],
      "name": "getHealthAssets",
      "outputs": [
        {
          "internalType": "address[]",
          "name": "assets",
          "type": "address[]"
        }
      ],
      "stateMutability": "view",
      "type": "function"
    },
    {
      "inputs": [
        {
          "internalType": "address",
          "name": "_pool",
          "type": "address"
        }
      ],
      "name": "getPoolInfo",
      "outputs": [
        {
          "internalType": "bool",
          "name": "isValidBoostPool",
          "type": "bool"
        },
        {
          "internalType": "uint24",
          "name": "fee",
          "type": "uint24"
        },
        {
          "internalType": "address",
          "name": "token0",
          "type": "address"
        },
        {
          "internalType": "address",
          "name": "token1",
          "type": "address"
        },
        {
          "internalType": "bool",
          "name": "isToken0Healthy",
          "type": "bool"
        },
        {
          "internalType": "bool",
          "name": "isToken1Healthy",
          "type": "bool"
        }
      ],
      "stateMutability": "view",
      "type": "function"
    },
    {
      "inputs": [
        {
          "internalType": "address",
          "name": "_pool",
          "type": "address"
        }
      ],
      "name": "liquidate",
      "outputs": [],
      "stateMutability": "nonpayable",
      "type": "function"
    },
    {
      "inputs": [],
      "name": "minBoostPeriod",
      "outputs": [
        {
          "internalType": "uint256",
          "name": "",
          "type": "uint256"
        }
      ],
      "stateMutability": "view",
      "type": "function"
    },
    {
      "inputs": [],
      "name": "minStakedTimeForClaimingReward",
      "outputs": [
        {
          "internalType": "uint256",
          "name": "",
          "type": "uint256"
        }
      ],
      "stateMutability": "view",
      "type": "function"
    },
    {
      "inputs": [
        {
          "internalType": "address",
          "name": "",
          "type": "address"
        },
        {
          "internalType": "address",
          "name": "",
          "type": "address"
        },
        {
          "internalType": "uint256",
          "name": "",
          "type": "uint256"
        },
        {
          "internalType": "bytes",
          "name": "",
          "type": "bytes"
        }
      ],
      "name": "onERC721Received",
      "outputs": [
        {
          "internalType": "bytes4",
          "name": "",
          "type": "bytes4"
        }
      ],
      "stateMutability": "pure",
      "type": "function"
    },
    {
      "inputs": [],
      "name": "owner",
      "outputs": [
        {
          "internalType": "address",
          "name": "",
          "type": "address"
        }
      ],
      "stateMutability": "view",
      "type": "function"
    },
    {
      "inputs": [
        {
          "internalType": "address",
          "name": "",
          "type": "address"
        }
      ],
      "name": "poolInfoMap",
      "outputs": [
        {
          "internalType": "bool",
          "name": "initialized",
          "type": "bool"
        },
        {
          "internalType": "uint24",
          "name": "fee",
          "type": "uint24"
        },
        {
          "internalType": "contract IERC20",
          "name": "healthToken",
          "type": "address"
        },
        {
          "internalType": "contract IERC20",
          "name": "pairedToken",
          "type": "address"
        },
        {
          "internalType": "bool",
          "name": "isToken0Healthy",
          "type": "bool"
        },
        {
          "internalType": "bool",
          "name": "isToken1Healthy",
          "type": "bool"
        }
      ],
      "stateMutability": "view",
      "type": "function"
    },
    {
      "inputs": [
        {
          "internalType": "address",
          "name": "",
          "type": "address"
        },
        {
          "internalType": "uint256",
          "name": "",
          "type": "uint256"
        }
      ],
      "name": "poolRoundDataMap",
      "outputs": [
        {
          "internalType": "enum IUniBoost.RoundStatus",
          "name": "status",
          "type": "uint8"
        },
        {
          "internalType": "address",
          "name": "incentivizer",
          "type": "address"
        },
        {
          "internalType": "uint64",
          "name": "boostEndTime",
          "type": "uint64"
        },
        {
          "internalType": "uint32",
          "name": "boostRate",
          "type": "uint32"
        },
        {
          "internalType": "int24",
          "name": "insuranceTriggerPriceInTick",
          "type": "int24"
        },
        {
          "internalType": "uint256",
          "name": "boostRewardBalance",
          "type": "uint256"
        },
        {
          "internalType": "uint256",
          "name": "insuranceBalance",
          "type": "uint256"
        },
        {
          "internalType": "uint256",
          "name": "totalInsuranceWeight",
          "type": "uint256"
        }
      ],
      "stateMutability": "view",
      "type": "function"
    },
    {
      "inputs": [],
      "name": "renounceOwnership",
      "outputs": [],
      "stateMutability": "nonpayable",
      "type": "function"
    },
    {
      "inputs": [
        {
          "internalType": "address",
          "name": "_protocolVault",
          "type": "address"
        },
        {
          "internalType": "uint24",
          "name": "_protocolFee",
          "type": "uint24"
        }
      ],
      "name": "setFeeConfig",
      "outputs": [],
      "stateMutability": "nonpayable",
      "type": "function"
    },
    {
      "inputs": [
        {
          "internalType": "uint256",
          "name": "_minBoostPeriod",
          "type": "uint256"
        }
      ],
      "name": "setMinBoostPeriod",
      "outputs": [],
      "stateMutability": "nonpayable",
      "type": "function"
    },
    {
      "inputs": [
        {
          "internalType": "uint256",
          "name": "_minStakedTimeForClaimingReward",
          "type": "uint256"
        }
      ],
      "name": "setMinStakedTimeForClaimingReward",
      "outputs": [],
      "stateMutability": "nonpayable",
      "type": "function"
    },
    {
      "inputs": [
        {
          "internalType": "uint256",
          "name": "_tokenId",
          "type": "uint256"
        }
      ],
      "name": "stakeLP",
      "outputs": [],
      "stateMutability": "nonpayable",
      "type": "function"
    },
    {
      "inputs": [
        {
          "internalType": "uint256",
          "name": "",
          "type": "uint256"
        }
      ],
      "name": "stakedTokenInfoMap",
      "outputs": [
        {
          "internalType": "address",
          "name": "owner",
          "type": "address"
        },
        {
          "internalType": "uint64",
          "name": "stakedTime",
          "type": "uint64"
        },
        {
          "internalType": "address",
          "name": "pool",
          "type": "address"
        },
        {
          "internalType": "uint64",
          "name": "lastClaimTime",
          "type": "uint64"
        },
        {
          "internalType": "uint256",
          "name": "insuranceWeight",
          "type": "uint256"
        }
      ],
      "stateMutability": "view",
      "type": "function"
    },
    {
      "inputs": [
        {
          "internalType": "address",
          "name": "newOwner",
          "type": "address"
        }
      ],
      "name": "transferOwnership",
      "outputs": [],
      "stateMutability": "nonpayable",
      "type": "function"
    },
    {
      "inputs": [],
      "name": "twapInterval",
      "outputs": [
        {
          "internalType": "uint32",
          "name": "",
          "type": "uint32"
        }
      ],
      "stateMutability": "view",
      "type": "function"
    },
    {
      "inputs": [
        {
          "internalType": "uint256",
          "name": "_tokenId",
          "type": "uint256"
        }
      ],
      "name": "unstakeLP",
      "outputs": [],
      "stateMutability": "nonpayable",
      "type": "function"
    },
    {
      "inputs": [],
      "name": "v3PositionManaer",
      "outputs": [
        {
          "internalType": "contract INonfungiblePositionManager",
          "name": "",
          "type": "address"
        }
      ],
      "stateMutability": "view",
      "type": "function"
    }
  ],
  "bytecode": "0x60e034620001eb57601f6200293838819003918201601f19168301926001600160401b0392909183851183861017620001f0578160e09284926040978852833981010312620001eb57620000538162000206565b620000616020830162000206565b906200006f85840162000206565b9160608401519162ffffff831690818403620001eb5760808601519460c060a08801519701519763ffffffff89168903620001eb5760008054336001600160a01b031982168117835591966001600160a01b03958693919284929083167f8be0079c531659141344cd1fd0a4f28419497f9722a3daafe3b4186f6b6457e08b80a3600180551660a0521660c052620001066200021b565b620f42408411620001da57895194858b0191821186831017620001c6575089521680835260209290920152600480546001600160b81b03191690911760a09290921b62ffffff60a01b16919091179055620001606200021b565b6002556200016d6200021b565b600355608052516126c390816200027582396080518181816114510152612219015260a0518181816103a001528181610afa0152610f0b015260c05181818161032301528181610de7015281816112be01526125bf0152f35b634e487b7160e01b81526041600452602490fd5b8951632b00a33d60e11b8152600490fd5b600080fd5b634e487b7160e01b600052604160045260246000fd5b51906001600160a01b0382168203620001eb57565b6000546001600160a01b031633036200023057565b606460405162461bcd60e51b815260206004820152602060248201527f4f776e61626c653a2063616c6c6572206973206e6f7420746865206f776e65726044820152fdfe6080604052600436101561001257600080fd5b6000803560e01c806306bfa938146117895780631209a503146116ed5780631218c5981461166a578063150b7a02146115f75780631b596ebc146115505780631e5eb1d014611519578063216886ed146114b35780632f865568146114755780633c1d5df0146114345780634bd97a1c146113c457806355f5215a146112ed5780635e49c141146112a85780635fb95cd31461128a57806365cb77ee1461126c5780636960f46b1461116657806370c43a5014611143578063715018a6146110e957806389bd37141461103d5780638da5cb5b14611016578063ae169a5014610f5d578063c03dfaaa14610f3a578063c45a015514610ef5578063c477899814610d36578063c8e69d9c14610783578063e5da2cb2146102e5578063f2fde38b1461021f5763f63b4ce81461014657600080fd5b3461021c57604036600319011261021c5761015f6117e8565b9060243560018060a01b0380931682526008602052604082208054821015610218579061018b91611803565b509182549260ff841691600182015460028301549160046003850154940154946040519660038210156102045750966001600160401b03916101009888528160081c16602088015260a81c16604086015263ffffffff8116606086015260201c60020b608085015260a084015260c083015260e0820152f35b634e487b7160e01b81526021600452602490fd5b8280fd5b80fd5b503461021c57602036600319011261021c576102396117e8565b610241611835565b6001600160a01b0390811690811561029157600054826001600160601b0360a01b821617600055167f8be0079c531659141344cd1fd0a4f28419497f9722a3daafe3b4186f6b6457e0600080a380f35b60405162461bcd60e51b815260206004820152602660248201527f4f776e61626c653a206e6577206f776e657220697320746865207a65726f206160448201526564647265737360d01b6064820152608490fd5b503461021c5760208060031936011261066f57600435906103046119e0565b60405163133f757160e31b8152600481018390526001600160a01b03917f00000000000000000000000000000000000000000000000000000000000000008316916101808082602481875afa801561077857879284898a958b938c968d966106b5575b5050604051630b4c774160e11b81526001600160a01b0391821660048201529116602482015262ffffff959095166044860152846064817f00000000000000000000000000000000000000000000000000000000000000008b165afa9384156106aa578994610673575b50886103dc85611f19565b96803b1561066f57604051632142170760e11b8152336004820152306024820152604481018b90529082908290606490829084905af1801561066457610648575b50509060049261049c92610431338b61253b565b50508886168b526007875260408b209161044a876121d7565b8c8a60018296015460ff8160a01c1680610639575b6105fb575b60a81c60ff16806105ec575b61059b575b5050506104916001600160801b039265ffffffffffff92611a68565b60020b169216611af8565b93016104a98482546119b2565b90556001600160401b038042166040519660a08801968888108489111761058557600a61057a96600299604052338b52808b01938585528360408d019816885260608c0195865260808c01998a528c5252610544848260408d209b5116936001600160601b0360a01b94858d5416178c5551168a908154906001600160401b0360a01b9060a01b16906001600160401b0360a01b1916179055565b600189019451169084541617835551168154906001600160401b0360a01b9060a01b16906001600160401b0360a01b1916179055565b519101556001805580f35b634e487b7160e01b600052604160045260246000fd5b65ffffffffffff939550610491926001600160801b03959260016105d79301548d1c60020b90508360020b81126000146105e657508290611a68565b60020b94925092508c8a610475565b90611a68565b508460020b8360020b13610470565b95508260018201548c1c60020b8560020b811360001461062d575061062260ff9186611a68565b60020b969050610464565b60ff9161062291611a68565b508460020b8460020b1261045f565b6106549093929361188d565b6106605790883861041d565b8880fd5b6040513d84823e3d90fd5b5080fd5b9093508481813d83116106a3575b61068b81836118a0565b810103126106605761069c906119bf565b92386103d1565b503d610681565b6040513d8b823e3d90fd5b96509650505050505081813d8311610771575b6106d281836118a0565b8101031261076d5780516001600160601b0381160361076d576106f68282016119bf565b50610703604082016119bf565b90610710606082016119bf565b61071c60808301611a36565b928461072a60a08501611a46565b9461073760c08601611a46565b9261075f61016061074a60e08901611a54565b976107586101408201611a54565b5001611a54565b509390959294933880610367565b8580fd5b503d6106c8565b6040513d89823e3d90fd5b503461021c5760c036600319011261021c5761079d6117e8565b906064358060020b810361066f5760843563ffffffff811681036102185760a435936001600160401b0385168503610d32576107d76119e0565b602435158015610d24575b610d12576107f2600254426119b2565b6001600160401b03861610610d005760018060a01b038116845260086020526040842054906007602052604085209160ff835416600014610aac57806109c7575b505b610846604435809360243590611b7b565b509060018060a01b03168552600860205260408520926040519461010086018681106001600160401b03821117610585576040526001865260208601973389526001600160401b03604088019116815263ffffffff6060880193168352608087019160020b825260a0870193845260c0870194855260e0870195888752805490600160401b8210156109b357906108e291600182018155611803565b97909761099f575190600382101561098b5787549951905167ffffffffffffffff60a81b60a89190911b16610100600160a81b0360089290921b9190911660ff929092166001600160e81b0319909a1699909917179790971785555160018086018054985160201b66ffffff000000001663ffffffff90931666ffffffffffffff1990991698909817919091179096555160028401555160038301555160049091015590805580f35b634e487b7160e01b89526021600452602489fd5b634e487b7160e01b89526004899052602489fd5b634e487b7160e01b8a52604160045260248afd5b6001600160a01b03821686526008602052604086206000198201918211610a9857906109f291611803565b50805460ff81166003811015610a8457600114610a4b575b505460ff166003811015610a3757600214610a255738610833565b60405163dcba0a2160e01b8152600490fd5b634e487b7160e01b86526021600452602486fd5b6001600160401b03429160a81c161015610a725780610a6c60ff9285611ed5565b90610a0a565b604051631fb2337d60e11b8152600490fd5b634e487b7160e01b88526021600452602488fd5b634e487b7160e01b87526011600452602487fd5b50610ab681612046565b9290939415610ca557604051630b4c774160e11b81526001600160a01b0380831660048301528316602482015262ffffff86166044820152602081806064810103817f00000000000000000000000000000000000000000000000000000000000000006001600160a01b03165afa908115610cf5578b91610cb7575b506001600160a01b03878116911603610ca5578380610c98575b610c79578380610c8b575b610c79578315610c65576001600160a01b03918216949116905b604051908160c08101106001600160401b0360c0840111176105855760019260c0830160405283835262ffffff60208401921682526040830190848060a01b031681526060830196848060a01b0316875260808301951515865260a083019415158552838060a01b0388168c52600760205260408c20925115159160ff63ffffff008554925160081b16926401000000008760c01b03905160201b169316906001600160401b0360c01b161717178155019260018060a01b0390511683549260ff60a01b9051151560a01b169160ff60a81b9051151560a81b169269ffffffffffffffffffff60b01b161717179055610835565b6001600160a01b0390811694911690610b71565b60405163696c998960e01b8152600490fd5b50898960020b1315610b57565b50898960020b1315610b4c565b60405163e6ae3d4160e01b8152600490fd5b90506020813d602011610ced575b81610cd2602093836118a0565b81010312610ce957610ce3906119bf565b38610b32565b8a80fd5b3d9150610cc5565b6040513d8d823e3d90fd5b60405163dc3ab74b60e01b8152600490fd5b6040516306e5731d60e21b8152600490fd5b5063ffffffff8216156107e2565b8380fd5b503461021c57602036600319011261021c57600435808252600a6020526040822080549192916001600160a01b03919082163303610ee3576001810154828116908185526008602052604085208054906000198201918211610a985790610d9c91611803565b509185526007602052604085209060ff8354166003811015610ecf57906002849214908115610eac575b50610e99575b60ff915054166003811015610e8557600214610e75575b50507f000000000000000000000000000000000000000000000000000000000000000016803b1561066f57604051632142170760e11b8152306004820152336024820152604481018490529082908290606490829084905af1801561066457610e66575b50908152600a6020526000600260408320838155836001820155015580f35b610e6f9061188d565b38610e47565b610e7e9161263b565b3880610de3565b634e487b7160e01b85526021600452602485fd5b610ea4918488612479565b503881610dcc565b610ec691506001600160401b036003549160a01c166119b2565b42111538610dc6565b634e487b7160e01b87526021600452602487fd5b6040516359dc379f60e01b8152600490fd5b503461021c578060031936011261021c576040517f00000000000000000000000000000000000000000000000000000000000000006001600160a01b03168152602090f35b503461021c57602036600319011261021c57610f54611835565b60043560035580f35b503461021c57602036600319011261021c57600435610f7a6119e0565b808252600a6020526040822080546001600160a01b03919082163303610ee3576001810154918216908185526007602052610fb86040862092611f19565b9260ff8454166003811015610ecf57600214908115610ff3575b50610fe0575b846001805580f35b610fe993612479565b5038808080610fd8565b61100d91506001600160401b036003549160a01c166119b2565b42111538610fd2565b503461021c578060031936011261021c57546040516001600160a01b039091168152602090f35b503461021c57604036600319011261021c576110576117e8565b60243562ffffff8116808203610d3257620f424090611074611835565b116110d7576040516001600160401b03604082019182109111176110c357600480546001600160b81b0319166001600160a01b039093169290921760a09190911b62ffffff60a01b1617905580f35b634e487b7160e01b83526041600452602483fd5b604051632b00a33d60e11b8152600490fd5b503461021c578060031936011261021c57611102611835565b80546001600160a01b03198116825581906001600160a01b03167f8be0079c531659141344cd1fd0a4f28419497f9722a3daafe3b4186f6b6457e08280a380f35b503461021c57602036600319011261021c5761115d611835565b60043560025580f35b503461021c578060031936011261021c5760058054906111858261197e565b9261119360405194856118a0565b82845261119f8361197e565b6020938585019391601f1901368537825b8181106112015750505060405193838594850191818652518092526040850193925b8281106111e157505050500390f35b83516001600160a01b0316855286955093810193928101926001016111d2565b8284979596945260018060a01b03817f036b6384b5eca791c62761152d0c79bb0604c104a5fb6f4eb0703f3154bb3db001541685518210156112585781841b860185015261124e906118c1565b95929493956111b0565b634e487b7160e01b88526032600452602488fd5b503461021c578060031936011261021c576020600254604051908152f35b503461021c578060031936011261021c576020600354604051908152f35b503461021c578060031936011261021c576040517f00000000000000000000000000000000000000000000000000000000000000006001600160a01b03168152602090f35b503461021c57606036600319011261021c576113076117e8565b604435906024356113166119e0565b8015610d12576001600160a01b0382811680865260086020526040862054919391156113b257855260076020526113506040862091611f19565b92835460081c1633036113a057611368918491611b7b565b50611378600283019182546119b2565b905581611388575b826001805580f35b600361139791019182546119b2565b90553880611380565b6040516378d88c8960e01b8152600490fd5b604051635123215560e01b8152600490fd5b503461021c57602036600319011261021c576113de6117e8565b6113e781611f99565b9291611422576113f5578280f35b6001600160a01b03168252600760205260408220611414908290611ed5565b805460ff1916905538808280f35b60405163f47b606560e01b8152600490fd5b503461021c578060031936011261021c57602060405163ffffffff7f0000000000000000000000000000000000000000000000000000000000000000168152f35b503461021c57602036600319011261021c576114976114926117e8565b611f99565b5050156114a15780f35b604051636ea6066b60e11b8152600490fd5b503461021c57602036600319011261021c57604060a0916004358152600a602052208054600260018301549201549060405192600180861b0380831685526001600160401b038093871c16602086015281166040850152841c1660608301526080820152f35b503461021c578060031936011261021c57600454604080516001600160a01b038316815260a09290921c62ffffff16602083015290f35b503461021c57602036600319011261021c576004358152600a6020526040812080546001600160a01b039081163303610ee357600182015416825260086020526040822080546000198101919082116115e357906115ad91611803565b5060ff81541660038110156115cf576002036114a1576115cc9161263b565b80f35b634e487b7160e01b84526021600452602484fd5b634e487b7160e01b84526011600452602484fd5b503461021c57608036600319011261021c576116116117e8565b506024356001600160a01b0381160361021c576064356001600160401b038082116102185736602383011215610218578160040135908111610218573691016024011161021c57604051630a85bd0160e11b8152602090f35b503461021c57602036600319011261021c5760c0906001600160a01b039060ff90604090836116976117e8565b16815260076020522091600183549301549080604051948481161515865262ffffff8160081c16602087015260201c16604085015281166060840152818160a01c161515608084015260a81c16151560a0820152f35b503461021c57602036600319011261021c576001600160401b036004358181116102185736602382011215610218578060040135918211610218576024906005368385831b8401011161178557611742611835565b845b84811061174f578580f35b80821b83018401356001600160a01b03811691908290036117815761177661177c926118e6565b506118c1565b611744565b8680fd5b8480fd5b503461021c57602036600319011261021c5760c062ffffff6117b16117ac6117e8565b612046565b94959093604051961515875216602086015260018060a01b03809216604086015216606084015215156080830152151560a0820152f35b600435906001600160a01b03821682036117fe57565b600080fd5b805482101561181f576000526005602060002091020190600090565b634e487b7160e01b600052603260045260246000fd5b6000546001600160a01b0316330361184957565b606460405162461bcd60e51b815260206004820152602060248201527f4f776e61626c653a2063616c6c6572206973206e6f7420746865206f776e65726044820152fd5b6001600160401b03811161058557604052565b90601f801991011681019081106001600160401b0382111761058557604052565b60001981146118d05760010190565b634e487b7160e01b600052601160045260246000fd5b60008181526006602052604081205461197957600554600160401b8110156119655760018101806005558110156119515790826040927f036b6384b5eca791c62761152d0c79bb0604c104a5fb6f4eb0703f3154bb3db0015560055492815260066020522055600190565b634e487b7160e01b82526032600452602482fd5b634e487b7160e01b82526041600452602482fd5b905090565b6001600160401b0381116105855760051b60200190565b80511561181f5760200190565b80516001101561181f5760400190565b919082018092116118d057565b51906001600160a01b03821682036117fe57565b919082039182116118d057565b6002600154146119f1576002600155565b60405162461bcd60e51b815260206004820152601f60248201527f5265656e7472616e637947756172643a207265656e7472616e742063616c6c006044820152606490fd5b519062ffffff821682036117fe57565b51908160020b82036117fe57565b51906001600160801b03821682036117fe57565b600291820b910b0390627fffff198212627fffff8313176118d057565b90919060001983820983820291828083109203948286039260009614611aea57620f42409183831115611781577fde8f6cefed634549b62c77574f722e1ac57e23f24d8fd5cb790fb65668c261399596500990828211900360fa1b910360061c170290565b505050620f42409192500490565b916000198284099282810292838086109503948086039514611b6d57848311156117fe5782910981806000031680920460028082600302188083028203028083028203028083028203028083028203028083028203028092029003029360018380600003040190848311900302920304170290565b5050809250156117fe570490565b6000938493909280611bb0575b5080611b92575050565b9054611bae91903090339060201c6001600160a01b0316611c79565b565b9450925062ffffff60045460a01c1692620f4240611bce8587611a85565b948609611c16575b611c1084611c03611be782896119d3565b976001860160018060a01b039283928383541630903390611c79565b5416906004541690611c2a565b38611b88565b926000198110156117fe5760010192611bd6565b60405163a9059cbb60e01b60208201526001600160a01b03909216602483015260448083019390935291815260808101916001600160401b0383118284101761058557611bae92604052611cbd565b6040516323b872dd60e01b60208201526001600160a01b039283166024820152929091166044830152606480830193909352918152611bae91611cbd6084836118a0565b60018060a01b031690604051604081016001600160401b039082811082821117610585576040526020938483527f5361666545524332303a206c6f772d6c6576656c2063616c6c206661696c6564858401526000808587829751910182855af1903d15611df6573d928311611de25790611d5793929160405192611d4a88601f19601f84011601856118a0565b83523d868885013e611e01565b805180611d65575b50505050565b8184918101031261066f578201519081159182150361021c5750611d8b57808080611d5f565b6084906040519062461bcd60e51b82526004820152602a60248201527f5361666545524332303a204552433230206f7065726174696f6e20646964206e6044820152691bdd081cdd58d8d9595960b21b6064820152fd5b634e487b7160e01b85526041600452602485fd5b90611d579392506060915b91929015611e635750815115611e15575090565b3b15611e1e5790565b60405162461bcd60e51b815260206004820152601d60248201527f416464726573733a2063616c6c20746f206e6f6e2d636f6e74726163740000006044820152606490fd5b825190915015611e765750805190602001fd5b6040519062461bcd60e51b82528160208060048301528251908160248401526000935b828510611ebc575050604492506000838284010152601f80199101168101030190fd5b8481018201518686016044015293810193859350611e99565b611f0f9060018060a01b03600181855460081c1692611f0083825460201c1685600389015491611c2a565b01541690600284015491611c2a565b805460ff19169055565b6001600160a01b031660008181526008602052604081205490929181156113b257835260086020526040832060001982019182116115e35790611f5b91611803565b509182549060ff8216906003821015610204575060011490811591611f82575b506113b257565b90506001600160401b03429160a81c161038611f7b565b611fa281611f19565b9060018060a01b03811660005260076020526001611fc46040600020926121d7565b9101549060ff8260a01c16918261202e575b8215612000575b5050611ff757805460ff1916600217815560019160009190565b60009160019190565b60a81c60ff16915081612016575b503880611fdd565b9050600182015460201c60020b9060020b133861200e565b9150600183015460201c60020b8160020b1291611fd6565b60408051630dfe168160e01b8152916001600160a01b03919082169060208085600481865afa9485156121cc57600095612195575b50815163d21220a760e01b8152859490928284600481885afa93841561218a57600094612153575b50600483859683519283809263ddca3f4360e01b82525afa918215612149575060009161210b575b506121009250816120eb9197166000526006602052604060002054151590565b92166000526006602052604060002054151590565b801515821515141595565b919282813d8311612142575b61212181836118a0565b8101031261021c5750906120eb8161213b61210094611a36565b91506120cb565b503d612117565b513d6000823e3d90fd5b90938382813d8311612183575b61216a81836118a0565b8101031261021c575061217c906119bf565b92386120a3565b503d612160565b50513d6000823e3d90fd5b90948582813d83116121c5575b6121ac81836118a0565b8101031261021c57506121be906119bf565b933861207b565b503d6121a2565b82513d6000823e3d90fd5b60408051906001600160401b036060830181811184821017610585578252600283529092916020808201928536853761220f83611995565b9563ffffffff94857f00000000000000000000000000000000000000000000000000000000000000001680985260009687918261224b886119a2565b52835197889763883bdbfd60e01b895260248901908860048b01525180915260448901929185905b82821061245a57506001600160a01b039a8a959403938593508b169150505afa948515612450578695612345575b50505050506122b96122b2826119a2565b5191611995565b5160060b9060060b0391667fffffffffffff8313667fffffffffffff198412176123315760070b9160060b90821561231d57677fffffffffffffff19821460001984141661230957500560020b90565b634e487b7160e01b81526011600452602490fd5b634e487b7160e01b81526012600452602490fd5b634e487b7160e01b82526011600452602482fd5b9091929394503d8087873e61235a81876118a0565b850192828685031261178157855181811161242f5786019584601f8801121561242f578651966123898861197e565b976123968651998a6118a0565b80895287808a019160051b83010191878311610ce9578801905b828210612433575050508581015191821161242f570183601f820112156117815784808251946123eb6123e28761197e565b915191826118a0565b858152019360051b820101938411611781578401915b83831061241757505050505038808080806122a1565b8251828116810361242f578152918401918401612401565b8780fd5b81518060060b810361244c5781529088019088016123b0565b8b80fd5b81513d88823e3d90fd5b8351811685528b9a508c96509389019392890192600190910190612273565b93929160026124be6001612497818060a01b0398898754169061253b565b91909401549360ff8560a01c1660001461253457505b63ffffffff60018701541690611a85565b9301805490938181111561252c5750945b8580156125245750858392826124ec936125159654169116611c2a565b600101805467ffffffffffffffff60a01b19164260a01b67ffffffffffffffff60a01b16179055565b6125208382546119d3565b9055565b955050505050565b9050946124cf565b90506124ad565b90604091825190608082018281106001600160401b0382111761058557845281526001600160a01b03918216602082019081526001600160801b0382850181815260608401828152865163fc6f786560e01b8152945160048601529251851660248501525181166044840152905116606482015260009183908290608490829086907f0000000000000000000000000000000000000000000000000000000000000000165af191821561263057809381936125f8575b5050509091565b919350915082813d8111612629575b61261181836118a0565b8101031261021c5750602081519101513880806125f1565b503d612607565b8351903d90823e3d90fd5b6000809261268960018060a01b03938460018201541684526007602052604084209060038401958061267a885460028501976004895491015491611af8565b935460201c1691541690611c2a565b555556fea2646970667358221220420b6d3a0de1a7d324cfa1d0b3dfc3e31b821735cd8c9f01808a577f01dcaafc64736f6c63430008130033",
  "linkReferences": {},
  "deployedLinkReferences": {}
}