{
  "_format": "hh-sol-artifact-1",
  "contractName": "UniBoost",
  "sourceName": "contracts/UniBoost.sol",
  "abi": [
    {
      "inputs": [
        {
          "internalType": "address",
          "name": "_factory",
          "type": "address"
        },
        {
          "internalType": "address",
          "name": "_nonfungiblePositionManager",
          "type": "address"
        },
        {
          "internalType": "address",
          "name": "_protocolVault",
          "type": "address"
        },
        {
          "internalType": "uint24",
          "name": "_protocolFee",
          "type": "uint24"
        },
        {
          "internalType": "uint256",
          "name": "_minBoostPeriod",
          "type": "uint256"
        },
        {
          "internalType": "uint256",
          "name": "_minStakedTimeForClaimingReward",
          "type": "uint256"
        },
        {
          "internalType": "uint32",
          "name": "_twapInterval",
          "type": "uint32"
        }
      ],
      "stateMutability": "nonpayable",
      "type": "constructor"
    },
    {
      "inputs": [],
      "name": "BoostRoundNotEnd",
      "type": "error"
    },
    {
      "inputs": [],
      "name": "BoostTimeTooShort",
      "type": "error"
    },
    {
      "inputs": [],
      "name": "InsuranceTriggered",
      "type": "error"
    },
    {
      "inputs": [],
      "name": "InvalidBoostAmountOrRate",
      "type": "error"
    },
    {
      "inputs": [],
      "name": "InvalidFeeConfig",
      "type": "error"
    },
    {
      "inputs": [],
      "name": "InvalidTime",
      "type": "error"
    },
    {
      "inputs": [],
      "name": "InvalidTriggerCondition",
      "type": "error"
    },
    {
      "inputs": [],
      "name": "NotAValidPool",
      "type": "error"
    },
    {
      "inputs": [],
      "name": "NotIncentivizer",
      "type": "error"
    },
    {
      "inputs": [],
      "name": "NotTokenOwner",
      "type": "error"
    },
    {
      "inputs": [],
      "name": "PoolBoostNotActive",
      "type": "error"
    },
    {
      "inputs": [],
      "name": "T",
      "type": "error"
    },
    {
      "inputs": [],
      "name": "liquidateConditionMet",
      "type": "error"
    },
    {
      "inputs": [],
      "name": "liquidateConditionNotMet",
      "type": "error"
    },
    {
      "anonymous": false,
      "inputs": [
        {
          "indexed": true,
          "internalType": "uint256",
          "name": "timestamp",
          "type": "uint256"
        }
      ],
      "name": "BoostClosed",
      "type": "event"
    },
    {
      "anonymous": false,
      "inputs": [
        {
          "indexed": true,
          "internalType": "address",
          "name": "pool",
          "type": "address"
        },
        {
          "indexed": false,
          "internalType": "uint256",
          "name": "increasedBoostAmount",
          "type": "uint256"
        },
        {
          "indexed": false,
          "internalType": "uint256",
          "name": "insuranceAmount",
          "type": "uint256"
        },
        {
          "indexed": false,
          "internalType": "int24",
          "name": "insuranceTriggerPriceInTick",
          "type": "int24"
        },
        {
          "indexed": false,
          "internalType": "uint32",
          "name": "boostRate",
          "type": "uint32"
        },
        {
          "indexed": true,
          "internalType": "uint64",
          "name": "boostEndTime",
          "type": "uint64"
        }
      ],
      "name": "BoostEnabled",
      "type": "event"
    },
    {
      "anonymous": false,
      "inputs": [
        {
          "indexed": true,
          "internalType": "uint256",
          "name": "timestamp",
          "type": "uint256"
        }
      ],
      "name": "BoostLiquidated",
      "type": "event"
    },
    {
      "anonymous": false,
      "inputs": [
        {
          "indexed": true,
          "internalType": "uint256",
          "name": "tokenId",
          "type": "uint256"
        },
        {
          "indexed": true,
          "internalType": "address",
          "name": "collectFor",
          "type": "address"
        },
        {
          "indexed": false,
          "internalType": "uint256",
          "name": "amount0",
          "type": "uint256"
        },
        {
          "indexed": false,
          "internalType": "uint256",
          "name": "amount1",
          "type": "uint256"
        }
      ],
      "name": "FeeCollect",
      "type": "event"
    },
    {
      "anonymous": false,
      "inputs": [
        {
          "indexed": false,
          "internalType": "address",
          "name": "protocolVault",
          "type": "address"
        },
        {
          "indexed": false,
          "internalType": "uint24",
          "name": "protocolFee",
          "type": "uint24"
        }
      ],
      "name": "FeeConfigSet",
      "type": "event"
    },
    {
      "anonymous": false,
      "inputs": [
        {
          "indexed": true,
          "internalType": "address",
          "name": "pool",
          "type": "address"
        },
        {
          "indexed": true,
          "internalType": "uint256",
          "name": "increasedBoostAmount",
          "type": "uint256"
        },
        {
          "indexed": true,
          "internalType": "uint256",
          "name": "insuranceAmount",
          "type": "uint256"
        },
        {
          "indexed": false,
          "internalType": "uint256",
          "name": "protocolFee",
          "type": "uint256"
        }
      ],
      "name": "FundAdded",
      "type": "event"
    },
    {
      "anonymous": false,
      "inputs": [
        {
          "indexed": true,
          "internalType": "address",
          "name": "pool",
          "type": "address"
        },
        {
          "indexed": true,
          "internalType": "uint256",
          "name": "boostRewardBalance",
          "type": "uint256"
        },
        {
          "indexed": true,
          "internalType": "uint256",
          "name": "insuranceBalance",
          "type": "uint256"
        }
      ],
      "name": "FundRemoved",
      "type": "event"
    },
    {
      "anonymous": false,
      "inputs": [
        {
          "indexed": false,
          "internalType": "bool",
          "name": "add",
          "type": "bool"
        },
        {
          "indexed": false,
          "internalType": "address[]",
          "name": "assets",
          "type": "address[]"
        }
      ],
      "name": "HealthyAssetsChanged",
      "type": "event"
    },
    {
      "anonymous": false,
      "inputs": [
        {
          "indexed": false,
          "internalType": "uint256",
          "name": "tokenId",
          "type": "uint256"
        },
        {
          "indexed": false,
          "internalType": "address",
          "name": "owner",
          "type": "address"
        },
        {
          "indexed": false,
          "internalType": "uint256",
          "name": "claimdTime",
          "type": "uint256"
        },
        {
          "indexed": false,
          "internalType": "address",
          "name": "pool",
          "type": "address"
        },
        {
          "indexed": false,
          "internalType": "uint256",
          "name": "insuranceAmount",
          "type": "uint256"
        }
      ],
      "name": "InsuranceClaimed",
      "type": "event"
    },
    {
      "anonymous": false,
      "inputs": [
        {
          "indexed": true,
          "internalType": "uint256",
          "name": "tokenId",
          "type": "uint256"
        },
        {
          "indexed": true,
          "internalType": "address",
          "name": "owner",
          "type": "address"
        },
        {
          "indexed": true,
          "internalType": "uint256",
          "name": "stakedTime",
          "type": "uint256"
        },
        {
          "indexed": false,
          "internalType": "address",
          "name": "pool",
          "type": "address"
        },
        {
          "indexed": false,
          "internalType": "uint256",
          "name": "insuranceWeight",
          "type": "uint256"
        }
      ],
      "name": "LPStaked",
      "type": "event"
    },
    {
      "anonymous": false,
      "inputs": [
        {
          "indexed": true,
          "internalType": "uint256",
          "name": "tokenId",
          "type": "uint256"
        },
        {
          "indexed": true,
          "internalType": "address",
          "name": "owner",
          "type": "address"
        },
        {
          "indexed": true,
          "internalType": "uint256",
          "name": "unstakedTime",
          "type": "uint256"
        },
        {
          "indexed": false,
          "internalType": "address",
          "name": "pool",
          "type": "address"
        },
        {
          "indexed": false,
          "internalType": "uint256",
          "name": "rewardAmount",
          "type": "uint256"
        },
        {
          "indexed": false,
          "internalType": "uint256",
          "name": "insuranceAmount",
          "type": "uint256"
        }
      ],
      "name": "LPUnstaked",
      "type": "event"
    },
    {
      "anonymous": false,
      "inputs": [
        {
          "indexed": true,
          "internalType": "uint256",
          "name": "minBoostPeriod",
          "type": "uint256"
        }
      ],
      "name": "MinBoostPeriodSet",
      "type": "event"
    },
    {
      "anonymous": false,
      "inputs": [
        {
          "indexed": true,
          "internalType": "uint256",
          "name": "minStakedTimeForClaimingReward",
          "type": "uint256"
        }
      ],
      "name": "MinStakedTimeForClaimingRewardSet",
      "type": "event"
    },
    {
      "anonymous": false,
      "inputs": [
        {
          "indexed": true,
          "internalType": "address",
          "name": "previousOwner",
          "type": "address"
        },
        {
          "indexed": true,
          "internalType": "address",
          "name": "newOwner",
          "type": "address"
        }
      ],
      "name": "OwnershipTransferred",
      "type": "event"
    },
    {
      "anonymous": false,
      "inputs": [
        {
          "indexed": false,
          "internalType": "uint256",
          "name": "tokenId",
          "type": "uint256"
        },
        {
          "indexed": false,
          "internalType": "address",
          "name": "owner",
          "type": "address"
        },
        {
          "indexed": false,
          "internalType": "uint256",
          "name": "claimdTime",
          "type": "uint256"
        },
        {
          "indexed": false,
          "internalType": "address",
          "name": "pool",
          "type": "address"
        },
        {
          "indexed": false,
          "internalType": "uint256",
          "name": "rewardAmount",
          "type": "uint256"
        }
      ],
      "name": "RewardClaimed",
      "type": "event"
    },
    {
      "inputs": [
        {
          "internalType": "address",
          "name": "_pool",
          "type": "address"
        },
        {
          "internalType": "uint256",
          "name": "_amount",
          "type": "uint256"
        },
        {
          "internalType": "uint256",
          "name": "_insuranceAmount",
          "type": "uint256"
        }
      ],
      "name": "addFund",
      "outputs": [
        {
          "internalType": "uint256",
          "name": "increasedBoostAmount",
          "type": "uint256"
        }
      ],
      "stateMutability": "nonpayable",
      "type": "function"
    },
    {
      "inputs": [
        {
          "internalType": "address[]",
          "name": "_assets",
          "type": "address[]"
        }
      ],
      "name": "addHealthyAssets",
      "outputs": [],
      "stateMutability": "nonpayable",
      "type": "function"
    },
    {
      "inputs": [
        {
          "internalType": "uint256",
          "name": "_tokenId",
          "type": "uint256"
        }
      ],
      "name": "claimOwedInsurance",
      "outputs": [
        {
          "internalType": "uint256",
          "name": "insuranceAmount",
          "type": "uint256"
        }
      ],
      "stateMutability": "nonpayable",
      "type": "function"
    },
    {
      "inputs": [
        {
          "internalType": "uint256",
          "name": "_tokenId",
          "type": "uint256"
        }
      ],
      "name": "claimReward",
      "outputs": [
        {
          "internalType": "uint256",
          "name": "amount0",
          "type": "uint256"
        },
        {
          "internalType": "uint256",
          "name": "amount1",
          "type": "uint256"
        },
        {
          "internalType": "uint256",
          "name": "rewardAmount",
          "type": "uint256"
        }
      ],
      "stateMutability": "nonpayable",
      "type": "function"
    },
    {
      "inputs": [
        {
          "internalType": "address",
          "name": "_pool",
          "type": "address"
        }
      ],
      "name": "closeCurrentBoostRound",
      "outputs": [],
      "stateMutability": "nonpayable",
      "type": "function"
    },
    {
      "inputs": [
        {
          "internalType": "address",
          "name": "_pool",
          "type": "address"
        },
        {
          "internalType": "uint256",
          "name": "_boostAmount",
          "type": "uint256"
        },
        {
          "internalType": "uint256",
          "name": "_insuranceAmount",
          "type": "uint256"
        },
        {
          "internalType": "int24",
          "name": "_insuranceTriggerPriceInTick",
          "type": "int24"
        },
        {
          "internalType": "uint32",
          "name": "_boostRate",
          "type": "uint32"
        },
        {
          "internalType": "uint64",
          "name": "_boostEndTime",
          "type": "uint64"
        }
      ],
      "name": "enableBoost",
      "outputs": [
        {
          "internalType": "uint256",
          "name": "increasedBoostAmount",
          "type": "uint256"
        }
      ],
      "stateMutability": "nonpayable",
      "type": "function"
    },
    {
      "inputs": [],
      "name": "factory",
      "outputs": [
        {
          "internalType": "contract IUniswapV3Factory",
          "name": "",
          "type": "address"
        }
      ],
      "stateMutability": "view",
      "type": "function"
    },
    {
      "inputs": [],
      "name": "feeConfig",
      "outputs": [
        {
          "internalType": "address",
          "name": "protocolVault",
          "type": "address"
        },
        {
          "internalType": "uint24",
          "name": "protocolFee",
          "type": "uint24"
        }
      ],
      "stateMutability": "view",
      "type": "function"
    },
    {
      "inputs": [
        {
          "internalType": "address",
          "name": "_pool",
          "type": "address"
        }
      ],
      "name": "getBoostRoundData",
      "outputs": [
        {
          "internalType": "uint256",
          "name": "index",
          "type": "uint256"
        },
        {
          "components": [
            {
              "internalType": "enum IUniBoost.RoundStatus",
              "name": "status",
              "type": "uint8"
            },
            {
              "internalType": "address",
              "name": "incentivizer",
              "type": "address"
            },
            {
              "internalType": "uint64",
              "name": "boostEndTime",
              "type": "uint64"
            },
            {
              "internalType": "uint32",
              "name": "boostRate",
              "type": "uint32"
            },
            {
              "internalType": "int24",
              "name": "insuranceTriggerPriceInTick",
              "type": "int24"
            },
            {
              "internalType": "uint256",
              "name": "boostRewardBalance",
              "type": "uint256"
            },
            {
              "internalType": "uint256",
              "name": "insuranceBalance",
              "type": "uint256"
            },
            {
              "internalType": "uint256",
              "name": "totalInsuranceWeight",
              "type": "uint256"
            }
          ],
          "internalType": "struct IUniBoost.BoostRoundData",
          "name": "data",
          "type": "tuple"
        }
      ],
      "stateMutability": "view",
      "type": "function"
    },
    {
      "inputs": [
        {
          "internalType": "uint256",
          "name": "_index",
          "type": "uint256"
        }
      ],
      "name": "getHealhyAssetsAt",
      "outputs": [
        {
          "internalType": "address",
          "name": "asset",
          "type": "address"
        }
      ],
      "stateMutability": "view",
      "type": "function"
    },
    {
      "inputs": [],
      "name": "getHealthyAssets",
      "outputs": [
        {
          "internalType": "address[]",
          "name": "assets",
          "type": "address[]"
        }
      ],
      "stateMutability": "view",
      "type": "function"
    },
    {
      "inputs": [],
      "name": "getNumberOfHealhyAssets",
      "outputs": [
        {
          "internalType": "uint256",
          "name": "length",
          "type": "uint256"
        }
      ],
      "stateMutability": "view",
      "type": "function"
    },
    {
      "inputs": [
        {
          "internalType": "address",
          "name": "_pool",
          "type": "address"
        }
      ],
      "name": "getPoolInfo",
      "outputs": [
        {
          "internalType": "bool",
          "name": "isValidBoostPool",
          "type": "bool"
        },
        {
          "internalType": "uint24",
          "name": "fee",
          "type": "uint24"
        },
        {
          "internalType": "address",
          "name": "token0",
          "type": "address"
        },
        {
          "internalType": "address",
          "name": "token1",
          "type": "address"
        },
        {
          "internalType": "bool",
          "name": "isToken0Healthy",
          "type": "bool"
        },
        {
          "internalType": "bool",
          "name": "isToken1Healthy",
          "type": "bool"
        }
      ],
      "stateMutability": "view",
      "type": "function"
    },
    {
      "inputs": [
        {
          "internalType": "address",
          "name": "_pool",
          "type": "address"
        }
      ],
      "name": "liquidate",
      "outputs": [],
      "stateMutability": "nonpayable",
      "type": "function"
    },
    {
      "inputs": [],
      "name": "minBoostPeriod",
      "outputs": [
        {
          "internalType": "uint256",
          "name": "",
          "type": "uint256"
        }
      ],
      "stateMutability": "view",
      "type": "function"
    },
    {
      "inputs": [],
      "name": "minStakedTimeForClaimingReward",
      "outputs": [
        {
          "internalType": "uint256",
          "name": "",
          "type": "uint256"
        }
      ],
      "stateMutability": "view",
      "type": "function"
    },
    {
      "inputs": [
        {
          "internalType": "address",
          "name": "",
          "type": "address"
        },
        {
          "internalType": "address",
          "name": "",
          "type": "address"
        },
        {
          "internalType": "uint256",
          "name": "",
          "type": "uint256"
        },
        {
          "internalType": "bytes",
          "name": "",
          "type": "bytes"
        }
      ],
      "name": "onERC721Received",
      "outputs": [
        {
          "internalType": "bytes4",
          "name": "",
          "type": "bytes4"
        }
      ],
      "stateMutability": "pure",
      "type": "function"
    },
    {
      "inputs": [],
      "name": "owner",
      "outputs": [
        {
          "internalType": "address",
          "name": "",
          "type": "address"
        }
      ],
      "stateMutability": "view",
      "type": "function"
    },
    {
      "inputs": [
        {
          "internalType": "address",
          "name": "",
          "type": "address"
        }
      ],
      "name": "poolInfoMap",
      "outputs": [
        {
          "internalType": "bool",
          "name": "initialized",
          "type": "bool"
        },
        {
          "internalType": "uint24",
          "name": "fee",
          "type": "uint24"
        },
        {
          "internalType": "contract IERC20",
          "name": "healthyToken",
          "type": "address"
        },
        {
          "internalType": "contract IERC20",
          "name": "pairedToken",
          "type": "address"
        },
        {
          "internalType": "bool",
          "name": "isToken0Healthy",
          "type": "bool"
        },
        {
          "internalType": "bool",
          "name": "isToken1Healthy",
          "type": "bool"
        }
      ],
      "stateMutability": "view",
      "type": "function"
    },
    {
      "inputs": [
        {
          "internalType": "address",
          "name": "",
          "type": "address"
        },
        {
          "internalType": "uint256",
          "name": "",
          "type": "uint256"
        }
      ],
      "name": "poolRoundDataMap",
      "outputs": [
        {
          "internalType": "enum IUniBoost.RoundStatus",
          "name": "status",
          "type": "uint8"
        },
        {
          "internalType": "address",
          "name": "incentivizer",
          "type": "address"
        },
        {
          "internalType": "uint64",
          "name": "boostEndTime",
          "type": "uint64"
        },
        {
          "internalType": "uint32",
          "name": "boostRate",
          "type": "uint32"
        },
        {
          "internalType": "int24",
          "name": "insuranceTriggerPriceInTick",
          "type": "int24"
        },
        {
          "internalType": "uint256",
          "name": "boostRewardBalance",
          "type": "uint256"
        },
        {
          "internalType": "uint256",
          "name": "insuranceBalance",
          "type": "uint256"
        },
        {
          "internalType": "uint256",
          "name": "totalInsuranceWeight",
          "type": "uint256"
        }
      ],
      "stateMutability": "view",
      "type": "function"
    },
    {
      "inputs": [
        {
          "internalType": "address[]",
          "name": "_assets",
          "type": "address[]"
        }
      ],
      "name": "removeHealthyAssets",
      "outputs": [],
      "stateMutability": "nonpayable",
      "type": "function"
    },
    {
      "inputs": [],
      "name": "renounceOwnership",
      "outputs": [],
      "stateMutability": "nonpayable",
      "type": "function"
    },
    {
      "inputs": [
        {
          "internalType": "address",
          "name": "_protocolVault",
          "type": "address"
        },
        {
          "internalType": "uint24",
          "name": "_protocolFee",
          "type": "uint24"
        }
      ],
      "name": "setFeeConfig",
      "outputs": [],
      "stateMutability": "nonpayable",
      "type": "function"
    },
    {
      "inputs": [
        {
          "internalType": "uint256",
          "name": "_minBoostPeriod",
          "type": "uint256"
        }
      ],
      "name": "setMinBoostPeriod",
      "outputs": [],
      "stateMutability": "nonpayable",
      "type": "function"
    },
    {
      "inputs": [
        {
          "internalType": "uint256",
          "name": "_minStakedTimeForClaimingReward",
          "type": "uint256"
        }
      ],
      "name": "setMinStakedTimeForClaimingReward",
      "outputs": [],
      "stateMutability": "nonpayable",
      "type": "function"
    },
    {
      "inputs": [
        {
          "internalType": "uint256",
          "name": "_tokenId",
          "type": "uint256"
        }
      ],
      "name": "stakeLP",
      "outputs": [
        {
          "internalType": "uint256",
          "name": "insuranceWeight",
          "type": "uint256"
        }
      ],
      "stateMutability": "nonpayable",
      "type": "function"
    },
    {
      "inputs": [
        {
          "internalType": "uint256",
          "name": "",
          "type": "uint256"
        }
      ],
      "name": "stakedTokenInfoMap",
      "outputs": [
        {
          "internalType": "address",
          "name": "owner",
          "type": "address"
        },
        {
          "internalType": "uint64",
          "name": "stakedTime",
          "type": "uint64"
        },
        {
          "internalType": "address",
          "name": "pool",
          "type": "address"
        },
        {
          "internalType": "uint64",
          "name": "lastClaimTime",
          "type": "uint64"
        },
        {
          "internalType": "uint256",
          "name": "insuranceWeight",
          "type": "uint256"
        }
      ],
      "stateMutability": "view",
      "type": "function"
    },
    {
      "inputs": [
        {
          "internalType": "address",
          "name": "newOwner",
          "type": "address"
        }
      ],
      "name": "transferOwnership",
      "outputs": [],
      "stateMutability": "nonpayable",
      "type": "function"
    },
    {
      "inputs": [],
      "name": "twapInterval",
      "outputs": [
        {
          "internalType": "uint32",
          "name": "",
          "type": "uint32"
        }
      ],
      "stateMutability": "view",
      "type": "function"
    },
    {
      "inputs": [
        {
          "internalType": "uint256",
          "name": "_tokenId",
          "type": "uint256"
        }
      ],
      "name": "unstakeLP",
      "outputs": [
        {
          "internalType": "uint256",
          "name": "amount0",
          "type": "uint256"
        },
        {
          "internalType": "uint256",
          "name": "amount1",
          "type": "uint256"
        },
        {
          "internalType": "uint256",
          "name": "rewardAmount",
          "type": "uint256"
        },
        {
          "internalType": "uint256",
          "name": "insuranceAmount",
          "type": "uint256"
        }
      ],
      "stateMutability": "nonpayable",
      "type": "function"
    },
    {
      "inputs": [],
      "name": "v3PositionManager",
      "outputs": [
        {
          "internalType": "contract INonfungiblePositionManager",
          "name": "",
          "type": "address"
        }
      ],
      "stateMutability": "view",
      "type": "function"
    }
  ],
  "bytecode": "0x60e0346200024857601f620035b038819003918201601f19168301926001600160401b03929091838511838610176200024d578160e092849260409788528339810103126200024857620000538162000263565b92620000626020830162000263565b906200007081840162000263565b93606084015162ffffff811690818103620002485760808601519760c060a08801519701519763ffffffff89168903620002485760008054336001600160a01b0319821681178355885192996001600160a01b039586939192849283167f8be0079c531659141344cd1fd0a4f28419497f9722a3daafe3b4186f6b6457e08e80a3600180551660a0521660c052620f424085116200023957508551948587019081118682101762000225578652168084526020938401839052600480546001600160b81b031916821760a09390931b62ffffff60a01b16929092179091558351908152918201527ffeda8961b7bf9d2fc5f012747ac3392e8dcc779544659b0c0da2559b941ce9319291907f1aa6ea8e82db273912958b157cfdd36dc91ed84dae7b22c18990394de5bf823a908290a18560025551947f59b51f27fc39a4507c1ed619e16be4efc3ba2f377f2d6330236d9378195532df8280a28260035580a260805261333790816200027982396080518181816118f60152612d86015260a05181818161053e01528181610e2901526112bc015260c0518181816104bd015281816111150152818161193001526131840152f35b634e487b7160e01b88526041600452602488fd5b632b00a33d60e11b8152600490fd5b600080fd5b634e487b7160e01b600052604160045260246000fd5b51906001600160a01b0382168203620002485756fe6080604052600436101561001257600080fd5b6000803560e01c806306bfa93814611cb85780631218c59814611c35578063150b7a0214611bc25780631b596ebc14611b205780631e5eb1d014611ae95780631e6de58e14611a28578063216886ed146119c25780632f8655681461195f57806339406c501461191a5780633c1d5df0146118d95780634bd97a1c1461184057806355f5215a1461175b5780635961d4691461169e5780635fb95cd31461168057806365cb77ee146116625780636ea41ed51461164457806370c43a50146115fc578063715018a6146115a257806389bd3714146114ac5780638da5cb5b14611485578063a473393314611415578063ae169a5014611333578063c03dfaaa146112eb578063c45a0155146112a6578063c477899814611064578063c8e69d9c14610a4d578063ca2108161461097c578063e5da2cb214610480578063e8441932146102f9578063f2fde38b1461022e5763f63b4ce81461017257600080fd5b3461022b57604036600319011261022b5761018b611d17565b6001600160a01b0390811682526008602052604082208054602435939084101561022b5750610100926101bd91611d9f565b5080549060018101546002820154906001600160401b036004600385015494015494604051966101f08860ff8416611d92565b8160081c16602088015260a81c16604086015263ffffffff8116606086015260201c60020b608085015260a084015260c083015260e0820152f35b80fd5b503461022b57602036600319011261022b57610248611d17565b610250611dd1565b6001600160a01b039081169081156102a557600054826bffffffffffffffffffffffff60a01b821617600055167f8be0079c531659141344cd1fd0a4f28419497f9722a3daafe3b4186f6b6457e0600080a380f35b60405162461bcd60e51b815260206004820152602660248201527f4f776e61626c653a206e6577206f776e657220697320746865207a65726f206160448201526564647265737360d01b6064820152608490fd5b503461022b576020908160031936011261022b57610315611d17565b918160e060405161032581611e3c565b82815282848201528260408201528260608201528260808201528260a08201528260c0820152015260018060a01b038093169182815260088252604081205492600019840193841161046c57604082859261038594526008855220611d9f565b5060405161039281611e3c565b815460ff81169560038710156104565761012096835284830190808360081c16825260408401926001600160401b03809160a81c168452600186015493606086019263ffffffff94858716855260808801968a1c60020b875261042360028a01549860a08101998a52600460038c01549b60c083019c8d5201549b60e082019c8d526040519d8e528d019051611d92565b511660408a015251166060880152511660808601525160020b60a08501525160c08401525160e083015251610100820152f35b634e487b7160e01b600052602160045260246000fd5b634e487b7160e01b82526011600452602482fd5b503461022b576020908160031936011261022b5760043561049f61208e565b60405163133f757160e31b8152600481018290526001600160a01b037f00000000000000000000000000000000000000000000000000000000000000008116919061018090858284602481885afa94851561096f578195898384988598869887956108a8575b5050604051630b4c774160e11b81526001600160a01b0391821660048201529116602482015262ffffff989098166044890152876064817f000000000000000000000000000000000000000000000000000000000000000088165afa96871561089d578397610866575b50610579876129e4565b91803b1561086257604051632142170760e11b8152336004820152306024820152604481018a90529084908290606490829084905af180156108575790849161083f575b50506105c933896130fd565b50508387169586845260078b5260408420906105e489612d44565b9660018501548d1c97600298890b9160016105fe83612116565b9501549060ff8260a01c1680610832575b6107f1575b5060a81c60ff1690816107e2575b50610780575b505050508761076a575b506001600160401b0393844216946040519560a0870193878510838611176107545760409485523388528b880182815288860194855260608901928352608089018c81528b8352600a8e529590912097518854915167ffffffffffffffff60a01b90851660a01b166001600160e01b031990921690871667ffffffffffffffff60a01b191617178755929361070293906001600160a01b031990600189019451169084541617835551168154906001600160401b0360a01b9060a01b16906001600160401b0360a01b1916179055565b51910155604080516001600160a01b03929092168252602082018490524292339290917f337d6708036211a690ae4f23db005af2836bf9563492ca447bd25952a340827491a460018055604051908152f35b634e487b7160e01b600052604160045260246000fd5b60040161077888825461206d565b905538610632565b86949b5081880b81126000146107c25750926107b06001600160801b03926107aa6107b896612116565b90612cb6565b16911661282a565b9638808080610628565b6107dd9491506001600160801b03926107aa6107b092612116565b6107b8565b905082890b90890b1338610622565b86919e50808b0b841360001461081d5760ff9161081061081692612116565b87612ccf565b9d90610614565b5061082d60ff9161081085612116565b610816565b50808b0b838c0b1261060f565b61084890611e29565b6108535782386105bd565b8280fd5b6040513d86823e3d90fd5b8380fd5b9096508981813d8311610896575b61087e8183611e58565b810103126108535761088f9061207a565b953861056f565b503d610874565b6040513d85823e3d90fd5b969950975050505050945082813d8311610968575b6108c78183611e58565b810103126108535781516bffffffffffffffffffffffff811603610853576108f087830161207a565b506108fd6040830161207a565b9261090a6060840161207a565b94610917608085016120e4565b958961092560a087016120f4565b9761093260c088016120f4565b9761095a61016061094560e08b01612102565b996109536101408201612102565b5001612102565b509290989796923880610505565b503d6108bd565b50604051903d90823e3d90fd5b503461022b5761098b36611d46565b90610994611dd1565b825b828110610a1a5750604051916040830190600190818552806020936040858801525260608501939260005b8281106109f257877fcfbfb02562d836a11f3a2c213336ce714b15a242972a1325ffa831c2c85a49e388880389a180f35b909192828082969760018060a01b03610a0a8a611d32565b16815201960194939291016109c1565b610a4890610a426001600160a01b03610a3c610a37848888611e9e565b611eae565b16611ef9565b50611e79565b610996565b503461022b5760c036600319011261022b57610a67611d17565b90606435918260020b8303611060576084359263ffffffff841684036108535760a435936001600160401b038516850361086257610aa361208e565b602435158015611052575b61104057610abe6002544261206d565b6001600160401b0386161061102e5760018060a01b0383168452600860205260408420546007602052604085209060ff825416600014610dd85780610cf2575b50610b12905b60443590602435908661249d565b506001600160a01b038416855260086020526040808620905191959190610b3882611e3c565b600182523360208301526001600160401b038816604083015263ffffffff841660608301528460020b60808301528660a083015260443560c08301528260e0830152805490600160401b821015610cde5790610b9991600182018155611d9f565b929092610cca578151906003821015610cb657509663ffffffff7ff2ee8a9ca820ddfd122ec8607367ca3b1c713a12745086c1caec2cc4e45a816a9484600460e06001600160401b039660209d60ff60809a5491168060ff198316178655610100600160a81b03602084015160081b169081816affffffffffffffffffffff60a81b8516171787558a60a81b604085015160a81b169262ffffff60e81b16171717845560018401866060830151168154908b84015160201b66ffffff00000000169166ffffffffffffff19161717905560a0810151600285015560c081015160038501550151910155604051968988526044358b89015260020b6040880152166060860152169360018060a01b031692a360018055604051908152f35b634e487b7160e01b81526021600452602490fd5b634e487b7160e01b81526004819052602490fd5b634e487b7160e01b84526041600452602484fd5b6001600160a01b03851686526008602052604086206000198201918211610dc45790610d1d91611d9f565b50805460ff81166003811015610db057600114610d76575b505460ff166003811015610d6257600214610d505738610afe565b60405163dcba0a2160e01b8152600490fd5b634e487b7160e01b86526021600452602486fd5b6001600160401b03429160a81c161015610d9e5780610d9860ff92848861296f565b90610d35565b604051631fb2337d60e11b8152600490fd5b634e487b7160e01b88526021600452602488fd5b634e487b7160e01b87526011600452602487fd5b50610de284612b25565b9193959492909215610fd357604051630b4c774160e11b81526001600160a01b0380831660048301528516602482015262ffffff87166044820152602081806064810103817f00000000000000000000000000000000000000000000000000000000000000006001600160a01b03165afa908115611023578b91610fe5575b506001600160a01b038a8116911603610fd3578280610fc6575b610fa7578280610fb9575b610fa7578215610f95576001600160a01b0393841693165b6040518060c08101106001600160401b0360c08301111761075457610b129660019260c0830160405283835262ffffff60208401921682526040830190848060a01b031681526060830196848060a01b0316875260808301951515865260a083019415158552838060a01b038c168d52600760205260408d20925115159160ff63ffffff008554925160081b16926401000000008760c01b03905160201b169316906001600160401b0360c01b161717178155019260018060a01b0390511683549260ff60a01b9051151560a01b169160ff60a81b9051151560a81b169269ffffffffffffffffffff60b01b161717179055610b04565b6001600160a01b039081169316610e9e565b60405163696c998960e01b8152600490fd5b50898860020b1315610e86565b50898860020b1315610e7b565b60405163e6ae3d4160e01b8152600490fd5b90506020813d60201161101b575b8161100060209383611e58565b81010312611017576110119061207a565b38610e61565b8a80fd5b3d9150610ff3565b6040513d8d823e3d90fd5b60405163dc3ab74b60e01b8152600490fd5b6040516306e5731d60e21b8152600490fd5b5063ffffffff811615610aae565b5080fd5b503461022b5760208060031936011261106057600435808352600a825260408320805484938493849384936001600160a01b03908116330361129457600182015481811692838b526008865260408b20805490600019820191821161128057906110cd91611d9f565b5091848c526007875260408c209060ff845416600381101561126c57600214908115611249575b50611229575b5060ff825416600381101561121557600214611201575b50507f000000000000000000000000000000000000000000000000000000000000000016803b156111fd57604051632142170760e11b8152306004820152336024820152604481018490529089908290606490829084905af180156111f2576080996000926002926111e3575b50848152600a8652604081209080825560018201550155604051908152848382015285604082015242917f5aaf5d120919af67b69c94c14d198aa8b8f6bebe334272c849ef76be9aed8d2060603393a460405194855284015260408301526060820152f35b6111ec90611e29565b3861117e565b6040513d8b823e3d90fd5b8880fd5b61120d9298508461324e565b953880611111565b634e487b7160e01b8c52602160045260248cfd5b90809a5061123d9398508297508585612fd2565b969195909598386110fa565b61126391506001600160401b036003549160a01c1661206d565b421015386110f4565b634e487b7160e01b8e52602160045260248efd5b634e487b7160e01b8d52601160045260248dfd5b6040516359dc379f60e01b8152600490fd5b503461022b578060031936011261022b576040517f00000000000000000000000000000000000000000000000000000000000000006001600160a01b03168152602090f35b503461022b57602036600319011261022b57600435611308611dd1565b806003557ffeda8961b7bf9d2fc5f012747ac3392e8dcc779544659b0c0da2559b941ce9318280a280f35b503461022b57602036600319011261022b5760043561135061208e565b808252600a6020526040822080548392839283926001600160a01b03929190831633036112945760018101549283169182885260076020526040882092611396816129e4565b9460ff8654169960038b1015610cb65750600260609a149081156113f2575b506113d6575b50505050506001805560405192835260208301526040820152f35b919395509193506113e79550612fd2565b9038808080806113bb565b61140c91506001600160401b036003549160a01c1661206d565b421015386113b5565b503461022b57602036600319011261022b576004356005548110156114715760059091527f036b6384b5eca791c62761152d0c79bb0604c104a5fb6f4eb0703f3154bb3db001546040516001600160a01b039091168152602090f35b634e487b7160e01b82526032600452602482fd5b503461022b578060031936011261022b57546040516001600160a01b039091168152602090f35b503461022b57604036600319011261022b576114c6611d17565b9060243562ffffff811692838203610853576114e0611dd1565b620f424084116115905760405160408101948186106001600160401b0387111761157c5760409586526001600160a01b0392909216808252602091820192909252600480546001600160b81b031916831760a085901b62ffffff60a01b16179055845191825262ffffff9092169181019190915290917f1aa6ea8e82db273912958b157cfdd36dc91ed84dae7b22c18990394de5bf823a91a180f35b634e487b7160e01b85526041600452602485fd5b604051632b00a33d60e11b8152600490fd5b503461022b578060031936011261022b576115bb611dd1565b80546001600160a01b03198116825581906001600160a01b03167f8be0079c531659141344cd1fd0a4f28419497f9722a3daafe3b4186f6b6457e08280a380f35b503461022b57602036600319011261022b57600435611619611dd1565b806002557f59b51f27fc39a4507c1ed619e16be4efc3ba2f377f2d6330236d9378195532df8280a280f35b503461022b578060031936011261022b576020600554604051908152f35b503461022b578060031936011261022b576020600254604051908152f35b503461022b578060031936011261022b576020600354604051908152f35b503461022b578060031936011261022b5760405180916005549081835260208093018092600583527f036b6384b5eca791c62761152d0c79bb0604c104a5fb6f4eb0703f3154bb3db090835b8181106117475750505084611700910385611e58565b60405193838594850191818652518092526040850193925b82811061172757505050500390f35b83516001600160a01b031685528695509381019392810192600101611718565b8254845292860192600192830192016116ea565b503461022b57606036600319011261022b57611775611d17565b90602435916044359061178661208e565b8315611040576001600160a01b0381811680855260086020526040852054919490911561182e576040918152600760205220906117c2816129e4565b93845460081c16330361181c576020946117dd92849261249d565b5091600281016117ee84825461206d565b905581611804575b505060018055604051908152f35b6003611813910191825461206d565b905538806117f6565b6040516378d88c8960e01b8152600490fd5b604051635123215560e01b8152600490fd5b503461022b57602036600319011261022b5761185a611d17565b61186381612a78565b92916118c757611897575b82427f3032bcd752fbf20191b709092d8294e5217791a7aaaa254613e15b5425d1e6198280a280f35b6001600160a01b03811683526007602052604083206118b89183919061296f565b805460ff19169055388061186e565b60405163f47b606560e01b8152600490fd5b503461022b578060031936011261022b57602060405163ffffffff7f0000000000000000000000000000000000000000000000000000000000000000168152f35b503461022b578060031936011261022b576040517f00000000000000000000000000000000000000000000000000000000000000006001600160a01b03168152602090f35b503461022b57602036600319011261022b5761198161197c611d17565b612a78565b5050156119b057427fe4f0f4ba75c0e838efbdef3b6c25da42b5b22e7a4b58b3438b25f8a3769ff8c38280a280f35b604051636ea6066b60e11b8152600490fd5b503461022b57602036600319011261022b57604060a0916004358152600a602052208054600260018301549201549060405192600180861b0380831685526001600160401b038093871c16602086015281166040850152841c1660608301526080820152f35b503461022b57611a3736611d46565b90611a40611dd1565b825b828110611ac157506040519160408301908484528060209260408487015252606084019291855b828110611a9a57867fcfbfb02562d836a11f3a2c213336ce714b15a242972a1325ffa831c2c85a49e387870388a180f35b909192938280600192838060a01b03611ab289611d32565b16815201950193929101611a69565b611ae490610a426001600160a01b03611ade610a37848888611e9e565b16611f83565b611a42565b503461022b578060031936011261022b57600454604080516001600160a01b038316815260a09290921c62ffffff16602083015290f35b503461022b57602036600319011261022b57600435808252600a6020526040822080549092906001600160a01b0390811633036112945760018401541681526008602052604081208054600019810191908211611bae5790611b8191611d9f565b509060ff825416906003821015610cb657506002036119b057602092611ba69261324e565b604051908152f35b634e487b7160e01b83526011600452602483fd5b503461022b57608036600319011261022b57611bdc611d17565b506024356001600160a01b0381160361022b576064356001600160401b038082116108535736602383011215610853578160040135908111610853573691016024011161022b57604051630a85bd0160e11b8152602090f35b503461022b57602036600319011261022b5760c0906001600160a01b039060ff9060409083611c62611d17565b16815260076020522091600183549301549080604051948481161515865262ffffff8160081c16602087015260201c16604085015281166060840152818160a01c161515608084015260a81c16151560a0820152f35b503461022b57602036600319011261022b5760c062ffffff611ce0611cdb611d17565b612b25565b94959093604051961515875216602086015260018060a01b03809216604086015216606084015215156080830152151560a0820152f35b600435906001600160a01b0382168203611d2d57565b600080fd5b35906001600160a01b0382168203611d2d57565b906020600319830112611d2d576004356001600160401b0392838211611d2d5780602383011215611d2d578160040135938411611d2d5760248460051b83010111611d2d576024019190565b9060038210156104565752565b8054821015611dbb576000526005602060002091020190600090565b634e487b7160e01b600052603260045260246000fd5b6000546001600160a01b03163303611de557565b606460405162461bcd60e51b815260206004820152602060248201527f4f776e61626c653a2063616c6c6572206973206e6f7420746865206f776e65726044820152fd5b6001600160401b03811161075457604052565b61010081019081106001600160401b0382111761075457604052565b90601f801991011681019081106001600160401b0382111761075457604052565b6000198114611e885760010190565b634e487b7160e01b600052601160045260246000fd5b9190811015611dbb5760051b0190565b356001600160a01b0381168103611d2d5790565b600554811015611dbb5760056000527f036b6384b5eca791c62761152d0c79bb0604c104a5fb6f4eb0703f3154bb3db00190600090565b600081815260066020526040812054611f7157600554600160401b811015611f5d579082611f49611f3284600160409601600555611ec2565b819391549060031b91821b91600019901b19161790565b905560055492815260066020522055600190565b634e487b7160e01b82526041600452602482fd5b905090565b91908203918211611e8857565b6000818152600660205260408120549091908015612068576000199080820181811161205457600554908382019182116120405780820361200c575b5050506005548015611ff857810190611fd782611ec2565b909182549160031b1b19169055600555815260066020526040812055600190565b634e487b7160e01b84526031600452602484fd5b61202a61201b611f3293611ec2565b90549060031b1c928392611ec2565b9055845260066020526040842055388080611fbf565b634e487b7160e01b86526011600452602486fd5b634e487b7160e01b85526011600452602485fd5b505090565b91908201809211611e8857565b51906001600160a01b0382168203611d2d57565b60026001541461209f576002600155565b60405162461bcd60e51b815260206004820152601f60248201527f5265656e7472616e637947756172643a207265656e7472616e742063616c6c006044820152606490fd5b519062ffffff82168203611d2d57565b51908160020b8203611d2d57565b51906001600160801b0382168203611d2d57565b60020b60008112156124975780600003905b620d89e88211612485576001821615612473576001600160881b036ffffcb933bd6fad37aa2d162d1a5940015b169160028116612457575b6004811661243b575b6008811661241f575b60108116612403575b602081166123e7575b604081166123cb575b6080908181166123b0575b6101008116612395575b610200811661237a575b610400811661235f575b6108008116612344575b6110008116612329575b612000811661230e575b61400081166122f3575b61800081166122d8575b6201000081166122bd575b6202000081166122a3575b620400008116612289575b620800001661226e575b50600012612249575b63ffffffff8116612241576000905b60201c60ff91909116016001600160a01b031690565b60019061222b565b8015612258576000190461221c565b634e487b7160e01b600052601260045260246000fd5b6b048a170391f7dc42444e8fa26000929302901c9190612213565b6d2216e584f5fa1ea926041bedfe98909302811c92612209565b926e5d6af8dedb81196699c329225ee60402811c926121fe565b926f09aa508b5b7a84e1c677de54f3e99bc902811c926121f3565b926f31be135f97d08fd981231505542fcfa602811c926121e8565b926f70d869a156d2a1b890bb3df62baf32f702811c926121de565b926fa9f746462d870fdf8a65dc1f90e061e502811c926121d4565b926fd097f3bdfd2022b8845ad8f792aa582502811c926121ca565b926fe7159475a2c29b7443b29c7fa6e889d902811c926121c0565b926ff3392b0822b70005940c7a398e4b70f302811c926121b6565b926ff987a7253ac413176f2b074cf7815e5402811c926121ac565b926ffcbe86c7900a88aedcffc83b479aa3a402811c926121a2565b926ffe5dee046a99a2a811c461f1969c305302811c92612198565b916fff2ea16466c96a3843ec78b326b528610260801c9161218d565b916fff973b41fa98c081472e6896dfb254c00260801c91612184565b916fffcb9843d60f6159c9db58835c9266440260801c9161217b565b916fffe5caca7e10e4e61c3624eaa0941cd00260801c91612172565b916ffff2e50f5f656932ef12357cf3c7fdcc0260801c91612169565b916ffff97272373d413259a46990580e213a0260801c91612160565b6001600160881b03600160801b612155565b6040516315e4079d60e11b8152600490fd5b80612128565b939192909360009460009480612518575b5090859183806124f5575b50506040518581526001600160a01b03909116907f22d5d31017a4d20ce7157db2519db6030d48e7305e710b639812c7e9bfbe5baf90602090a4565b905461251191903090339060201c6001600160a01b03166125e4565b38836124b9565b919550935062ffffff60045460a01c1693620f42406125378684612875565b958309612584575b946125709561257d866125528186611f76565b9889956001850160018060a01b0392839283835416309033906125e4565b541690600454169061259a565b90916124ae565b9394600019861015611d2d57946001019361253f565b60405163a9059cbb60e01b60208201526001600160a01b03909216602483015260448201929092526125e2916125dd82606481015b03601f198101845283611e58565b612626565b565b6040516323b872dd60e01b60208201526001600160a01b03928316602482015292909116604483015260648201929092526125e2916125dd82608481016125cf565b60018060a01b031690604051604081016001600160401b039082811082821117610754576040526020938483527f5361666545524332303a206c6f772d6c6576656c2063616c6c206661696c6564858401526000808587829751910182855af1903d1561274b573d92831161157c57906126c0939291604051926126b388601f19601f8401160185611e58565b83523d868885013e612756565b8051806126ce575b50505050565b81849181010312611060578201519081159182150361022b57506126f4578080806126c8565b6084906040519062461bcd60e51b82526004820152602a60248201527f5361666545524332303a204552433230206f7065726174696f6e20646964206e6044820152691bdd081cdd58d8d9595960b21b6064820152fd5b906126c09392506060915b919290156127b8575081511561276a575090565b3b156127735790565b60405162461bcd60e51b815260206004820152601d60248201527f416464726573733a2063616c6c20746f206e6f6e2d636f6e74726163740000006044820152606490fd5b8251909150156127cb5750805190602001fd5b6040519062461bcd60e51b82528160208060048301528251908160248401526000935b828510612811575050604492506000838284010152601f80199101168101030190fd5b84810182015186860160440152938101938593506127ee565b600019828209908281029283808410930391838303936000931461286a57600160601b928484111561022b57500990828211900360a01b910360601c1790565b505090505060601c90565b909190600019838209838202918280831092039482860392600096146128de57620f424091838311156128da577fde8f6cefed634549b62c77574f722e1ac57e23f24d8fd5cb790fb65668c261399596500990828211900360fa1b910360061c170290565b8680fd5b505050620f42409192500490565b9160001982840992828102928380861095039480860395146129615784831115611d2d5782910981806000031680920460028082600302188083028203028083028203028083028203028083028203028083028203028092029003029360018380600003040190848311900302920304170290565b505080925015611d2d570490565b919060018060a01b039081835460081c16926129b083806001850154169361299e60028501958887549161259a565b5460201c16600383019586549161259a565b805460ff1916905554915492167f2d2c22b12ce2c4142ec672b74a307ec23572019efd8c9a930a8fc19f0fcd6c86600080a4565b6001600160a01b0316600081815260086020526040812054909291811561182e5783526008602052604083206000198201918211612a645790612a2691611d9f565b509182549060ff8216906003821015610cb6575060011490811591612a4d575b5061182e57565b90506001600160401b03429160a81c161038612a46565b634e487b7160e01b84526011600452602484fd5b612a81816129e4565b9060018060a01b03811660005260076020526001612aa3604060002092612d44565b9101549060ff8260a01c169182612b0d575b8215612adf575b5050612ad657805460ff1916600217815560019160009190565b60009160019190565b60a81c60ff16915081612af5575b503880612abc565b9050600182015460201c60020b9060020b1338612aed565b9150600183015460201c60020b8160020b1291612ab5565b60408051630dfe168160e01b8152916001600160a01b03919082169060208085600481865afa948515612cab57600095612c74575b50815163d21220a760e01b8152859490928284600481885afa938415612c6957600094612c32575b50600483859683519283809263ddca3f4360e01b82525afa918215612c285750600091612bea575b50612bdf925081612bca9197166000526006602052604060002054151590565b92166000526006602052604060002054151590565b801515821515141595565b919282813d8311612c21575b612c008183611e58565b8101031261022b575090612bca81612c1a612bdf946120e4565b9150612baa565b503d612bf6565b513d6000823e3d90fd5b90938382813d8311612c62575b612c498183611e58565b8101031261022b5750612c5b9061207a565b9238612b82565b503d612c3f565b50513d6000823e3d90fd5b90948582813d8311612ca4575b612c8b8183611e58565b8101031261022b5750612c9d9061207a565b9338612b5a565b503d612c81565b82513d6000823e3d90fd5b6001600160a01b039182169082160391908211611e8857565b916001600160a01b0391612d0391908380612cea8784612cb6565b169116916001600160801b0360601b9060601b166128ec565b9116908115612258570490565b6001600160401b0381116107545760051b60200190565b805115611dbb5760200190565b805160011015611dbb5760400190565b60408051906001600160401b0360608301818111848210176107545782526002835290929160208082019285368537612d7c83612d27565b9563ffffffff94857f000000000000000000000000000000000000000000000000000000000000000016809852600096879182612db888612d34565b52835197889763883bdbfd60e01b895260248901908860048b01525180915260448901929185905b828210612fb357506001600160a01b039a8a959403938593508b169150505afa948515612fa9578695612e9e575b5050505050612e26612e1f82612d34565b5191612d27565b5160060b9060060b0391667fffffffffffff8313667fffffffffffff1984121761046c5760070b9160060b908215612e8a57677fffffffffffffff198214600019841416612e7657500560020b90565b634e487b7160e01b81526011600452602490fd5b634e487b7160e01b81526012600452602490fd5b9091929394503d8087873e612eb38187611e58565b85019282868503126128da578551818111612f885786019584601f88011215612f8857865196612ee288612d10565b97612eef8651998a611e58565b80895287808a019160051b83010191878311611017578801905b828210612f8c5750505085810151918211612f88570183601f820112156128da578480825194612f44612f3b87612d10565b91519182611e58565b858152019360051b8201019384116128da578401915b838310612f705750505050503880808080612e0e565b82518281168103612f88578152918401918401612f5a565b8780fd5b81518060060b8103612fa5578152908801908801612f09565b8b80fd5b81513d88823e3d90fd5b8351811685528b9a508c96509389019392890192600190910190612de0565b909491929460018060a01b0394612fec86865416836130fd565b959086976001829a01549160ff8360a01c166000146130f257600261301d8a5b63ffffffff60018901541690612875565b950180549095818111156130ea5750985b8980156130db57505050916130718861309a93857f342996fa72cfb3749d0e761986ea17f9034c8b17ea189902e5eb541725f9970d99989796855416911661259a565b600101805467ffffffffffffffff60a01b19164260a01b67ffffffffffffffff60a01b16179055565b6130a5868254611f76565b90556040805191825233602083015242908201526001600160a01b039091166060820152608081018490528060a081015b0390a1565b9b509099509750505050505050565b90509861302e565b600261301d8261300c565b916040805193608085018581106001600160401b038211176107545782528085526001600160a01b03938416602086018181526001600160801b0387850181815260608901828152865163fc6f786560e01b8152995160048b01529251881660248a01525181166044890152905116606487015260009490929081908790608490829089907f0000000000000000000000000000000000000000000000000000000000000000165af1958615613244578580976131ea575b50507f224b3c0a11c1c33674a920cf6e0ff05edda7a4fbdd37a7e5a6f6f9dbe135bcea908695809782519182526020820152a3565b91965094508585813d831161323d575b6132048183611e58565b8101031261022b57507f224b3c0a11c1c33674a920cf6e0ff05edda7a4fbdd37a7e5a6f6f9dbe135bcea602085519501519590386131b5565b503d6131fa565b81513d87823e3d90fd5b600093927f4330a028aa6622b947c6be04867e81b947980fa938fea6e4a10580e59f9b6eae92600181019060018060a01b0396879384845416825260076020526132c0604083206132b160038401956002875491019460048654910154916128ec565b9a8b915460201c16339061259a565b556132cc878254611f76565b905554604080519384523360208501524290840152166001600160a01b03166060820152608081018490528060a081016130d656fea2646970667358221220161958fd42f9e68368bd1289403dfd494cf116f77f73aac6ccb98ce0fb6c0c7664736f6c63430008130033",
  "linkReferences": {},
  "deployedLinkReferences": {}
}